S014000074656D7065726174757261322E7372656334
S11300000C94F2000C940F010C940F010C940F014A
S11300100C940F010C940F010C9423020C940F0107
S11300200C940F010C940F010C94CF010C940F014C
S11300300C940F010C940F010C940F010C940F01FC
S11300400C940F010C940F010C9430010C940F01CB
S11300500C940F010C940F010C940F010C940F01DC
S11300600C940F010C940F0108000000BE92244967
S1130070123EABAAAA2ABECDCCCC4C3E00000080D6
S1130080BEABAAAAAA3E00000000BF000000803F49
S11300900000000000084178D3BB4387D1133D1909
S11300A00E3CC3BD4282AD2B3E68EC8276BED98F36
S11300B0E1A93E4C80EFFFBE01C4FF7F3F0000007A
S11300C0000007634236B79BD8A71A39685618AEA2
S11300D0BAAB558C1D3CB7CC5763BD6DEDFD753E79
S11300E0F6177231BF000000803F00407A10F35AC7
S11300F000A0724E18090010A5D4E80000E8764864
S1130100170000E40B54020000CA9A3B000000E10F
S1130110F505000080969800000040420F000000A2
S1130120A08601000000102700000000E803000082
S113013000006400000000000A000000000001004C
S1130140000000002C76D888DC674F0823DFC1DF6D
S1130150AE59E1B1B796E5E3E453C63AE651997670
S113016096E8E6C28426EB898C9B62ED407C6FFCAA
S1130170EFBC9C9F40F2BAA56FA5F490055A2AF7EC
S11301805C936B6CF9676DC11BFCE0E40D47FEF5F5
S113019020E6B500D0ED902E03009435770500805D
S11301A0841E080000204E0A000000C80C333333BC
S11301B0330F986E12831141EF8D2114893BE6555C
S11301C016CFFEE6DB18D1844B381BF77C1D901D3F
S11301D0A4BBE424203284725E228100C9F124ECA1
S11301E0A1E53D2711241FBECFEFD8E0DEBFCDBF70
S11301F011E0A0E0B1E0E0E9F6E102C005900D9263
S1130200A635B107D9F721E0A6E5B1E001C01D92FA
S1130210A838B207E1F70E94C3040C94460B0C946F
S113022000009093C5008093C40088E18093C100CE
S11302308EE08093C20008959091C00095FFFCCF9A
S11302408093C6000895CF93DF93EC0188818823BF
S113025021F00E941C012196F9CFDF91CF910895DE
S11302601F920F920FB60F9211240F931F932F9387
S11302703F934F935F936F937F938F939F93AF932A
S1130280BF93EF93FF938091C60080930601893456
S113029009F048C080918001811128C080918701B4
S11302A0823041F487E091E00E9423018AE00E94B9
S11302B01C0162C0833041F485E191E00E94230176
S11302C08AE00E941C0158C0853041F481E291E02B
S11302D00E9423018AE00E941C014EC081E291E049
S11302E00E9423018AE00E941C0146C081E08093A1
S11302F082016091740170917501809176019091F1
S1130300770106E511E023E044E00E94BD08C8013E
S11303100E9423018DE291E00E9423018AE00E9461
S11303201C012AC0843419F41092820125C080353E
S113033041F480E391E00E9423018AE00E941C01C1
S11303401BC0833481F480918001811108C081E253
S113035091E00E9423018AE00E941C010DC082E00A
S11303608093820109C0863439F482E391E00E94CB
S113037023018AE00E941C01FF91EF91BF91AF918C
S11303809F918F917F916F915F914F913F912F91A9
S11303901F910F910F900FBE0F901F9018951F92F1
S11303A00F920FB60F9211242F933F938F939F9325
S11303B0EF93FF93F8942091860020938501809118
S11303C087008093860190918401911111C090E07F
S11303D0982F8827822B90937F0180937E01E1E8F8
S11303E0F0E080818064808381E0809384011FC079
S11303F09130E9F490E0982F8827822B90937D0127
S113040080937C0120917E0130917F01821B930BAC
S113041090937B0180937A01E1E8F0E080818F7B07
S1130420808382E08093840188B1806188B9789464
S1130430FF91EF919F918F913F912F910F900FBE5C
S11304400F901F9018951F920F920FB60F921124C0
S11304508F93A8951092800185E0809387018F91F6
S11304600F900FBE0F901F901895A89598B19061AA
S113047098B9EFEFFFE83197F1F700C00000109250
S11304808301811113C08BB1877F8BB98BB18F7EB0
S11304908BB988B18B7F88B985B18D7F85B985B1DA
S11304A0846085B988B18F7E88B95AC0813099F447
S11304B08BB188608BB98BB18F7E8BB988B18B7F00
S11304C088B985B18B7F85B985B1826085B988B1DA
S11304D08F7E88B945C0823099F48BB180618BB925
S11304E08BB1877F8BB985B18B7F85B985B18D7FC2
S11304F085B988B1846088B988B18F7E88B930C0E5
S11305008330B1F48BB188608BB98BB180618BB9C6
S113051085B18B7F85B985B18D7F85B988B18B7F96
S113052088B988B18F7E88B981E08093830118C02F
S1130530843099F48BB188608BB98BB180618BB9AD
S113054085B1846085B985B1826085B988B18460DC
S113055088B988B18F7E88B903C081E08093830114
S11305601092840120E030E090918301911111C038
S1130570909184019230C1F786E69EE00197F1F7ED
S1130580000020917A0130917B0181E08093830106
S1130590EBCFC9010895CF93DF9310926C011092B1
S11305A06D0110926E0110926F0183E00E9435027A
S11305B08FEF9FE80197F1F700C00000C0E0D0E0A2
S11305C0C233D1054CF580E00E9435029093790145
S11305D080937801BC0180E090E00E943D06209168
S11305E06C0130916D0140916E0150916F010E9438
S11305F05F0560936C0170936D0180936E0190931D
S11306006F01219684E00E94350283E00E94350246
S113061082E080938701D4CF20E030E048E452E4C4
S113062060916C0170916D0180916E0190916F01E8
S11306300E94CB0560936C0170936D0180936E01F1
S113064090936F01109270011092710110927201D7
S1130650109273018FEF9FE80197F1F700C000003B
S1130660C0E0D0E0C233D10534F581E00E94350208
S11306709093790180937801BC0180E090E00E941E
S11306803D062091700130917101409172015091A9
S113069073010E945F0560937001709371018093F0
S11306A0720190937301219684E00E94350283E0E5
S11306B00E943502D7CF20E030E048E452E4609154
S11306C070017091710180917201909173010E9487
S11306D0CB056093700170937101809372019093C4
S11306E0730120916C0130916D0140916E01509124
S11306F06F010E94CB0520E038E443E356E40E94F6
S11307001B079B01AC0160936401709365018093A6
S113071066019093670160E070E18DE396E40E94C6
S11307205E05209100013091010140910201509138
S113073003010E945F0560936801709369018093CF
S11307406A0190936B018FEF9FE80197F1F700C066
S11307500000DF91CF9108958F929F92AF92BF9244
S1130760CF92DF92EF92FF92CF93DF9310926C01BE
S113077010926D0110926E0110926F0183E00E943D
S113078035028FEF9FE80197F1F700C00000C0E049
S1130790D0E0C233D1054CF580E00E94350290933D
S11307A0790180937801BC0180E090E00E943D06CD
S11307B020916C0130916D0140916E0150916F0157
S11307C00E945F0560936C0170936D0180936E01CC
S11307D090936F01219684E00E94350283E00E9489
S11307E0350283E080938701D4CF20E030E048E4F1
S11307F052E460916C0170916D0180916E01909151
S11308006F010E94CB0560936C0170936D0180931E
S11308106E0190936F011092700110927101109209
S11308207201109273018FEF9FE80197F1F700C0F6
S11308300000C0E0D0E0C233D10534F582E00E946C
S113084035029093790180937801BC0180E090E0B7
S11308500E943D0620917001309171014091720116
S1130860509173010E945F05609370017093710150
S11308708093720190937301219684E00E94350263
S113088083E00E943502D7CF20E030E048E452E410
S11308906091700170917101809172019091730166
S11308A00E94CB0560937001709371018093720173
S11308B09093730120916C0130916D0140916E0110
S11308C050916F010E94CB0520E038E443E356E4E5
S11308D00E941B07209168013091690140916A01CF
S11308E050916B010E945F056093640170936501F0
S11308F080936601909367010E94D3066B017C018B
S11309002DEF38E646E759E30E941B072CE432E654
S113091042EC5AE30E945F054B015C0120E030E0A9
S113092040E450E4C701B6010E94880723E23CED8D
S113093043E054E30E941B079B01AC01C501B401D1
S11309400E945F059B01AC0160E070E080E89FE3DA
S11309500E94CB0523E333E948E853E40E945E0593
S1130960609374017093750180937601909377017D
S1130970DF91CF91FF90EF90DF90CF90BF90AF9039
S11309809F908F900895F89487E090E00E94110161
S113099088E98093C10082E88093810080E280939B
S11309A06F0084B1866084B985B18D7F85B985B1C6
S11309B08B7F85B987B1846187B988B18B7F88B90A
S11309C084B7877F84BFE0E6F0E08081886180831C
S11309D085E580838AB1886D8AB98BB180688BB9CB
S11309E08BB1877F8BB98BB18F7E8BB984B5836CC8
S11309F084BD85B5846085BD78948DE391E00E94C3
S1130A0023018AE00E941C010E94CB020E94AC03D5
S1130A108091740190917501A0917601B091770154
S1130A208093600190936101A0936201B09363018C
S1130A300E94AC0384E080938701909180018091AF
S1130A400501891720F4809104018093800180912D
S1130A5080018F5F8093800180918201813079F4DD
S1130A6010928201809181018F5F809381018B308C
S1130A70F8F282E08093820110928101D9CF823012
S1130A80B9F60E94CB02609168017091690180916E
S1130A906A0190916B0106E511E023E044E00E94B5
S1130AA0BD08C8010E94230188E491E00E9423014B
S1130AB08AE00E941C0110928201BACF5058BB27D1
S1130AC0AA270E9476050C9491060E94830638F0AA
S1130AD00E948A0620F039F49F3F19F426F40C94FE
S1130AE080060EF4E095E7FB0C947A06E92F0E9449
S1130AF0A20658F3BA17620773078407950720F014
S1130B0079F4A6F50C94C4060EF4E0950B2EBA2FD6
S1130B10A02D0B01B90190010C01CA01A0011124FF
S1130B20FF27591B99F0593F50F4503E68F11A16AB
S1130B30F040A22F232F342F4427585FF3CF46953C
S1130B4037952795A795F0405395C9F77EF41F165E
S1130B50BA0B620B730B840BBAF09150A1F0FF0F28
S1130B60BB1F661F771F881FC2F70EC0BA0F621F14
S1130B70731F841F48F4879577956795B795F79504
S1130B809E3F08F0B0CF9395880F08F09927EE0F99
S1130B909795879508950E94DF050C9491060E940D
S1130BA08A0658F00E94830640F029F45F3F29F03A
S1130BB00C947A0651110C94C5060C9480060E947C
S1130BC0A20668F39923B1F3552391F3951B550BB2
S1130BD0BB27AA2762177307840738F09F5F5F4F0C
S1130BE0220F331F441FAA1FA9F335D00E2E3AF04B
S1130BF0E0E832D091505040E695001CCAF72BD063
S1130C00FE2F29D0660F771F881FBB1F26173707B3
S1130C104807AB07B0E809F0BB0B802DBF01FF27E5
S1130C2093585F4F3AF09E3F510578F00C947A0642
S1130C300C94C5065F3FE4F3983ED4F3869577950C
S1130C406795B795F7959F5FC9F7880F911D96959E
S1130C50879597F90895E1E0660F771F881FBB1FFA
S1130C60621773078407BA0720F0621B730B840BA7
S1130C70BA0BEE1F88F7E0950895E89409C097FB36
S1130C803EF490958095709561957F4F8F4F9F4F5F
S1130C909923A9F0F92F96E9BB279395F6958795A3
S1130CA077956795B795F111F8CFFAF4BB0F11F466
S1130CB060FF1BC06F5F7F4F8F4F9F4F16C088230D
S1130CC011F096E911C0772321F09EE8872F762F43
S1130CD005C0662371F096E8862F70E060E02AF084
S1130CE09A95660F771F881FDAF7880F9695879570
S1130CF097F9089597F99F6780E870E060E0089598
S1130D009FEF80EC089500240A941616170618061F
S1130D100906089500240A941216130614060506FB
S1130D200895092E0394000C11F4882352F0BB0F8C
S1130D3040F4BF2B11F460FF04C06F5F7F4F8F4FEF
S1130D409F4F089557FD9058440F551F59F05F3F2A
S1130D5071F04795880F97FB991F61F09F3F79F0D9
S1130D6087950895121613061406551FF2CF46955B
S1130D70F1DF08C0161617061806991FF1CF8695DD
S1130D807105610508940895E894BB2766277727C1
S1130D90CB0197F9089516F00C9412080C94800670
S1130DA068940C947A060E94AA06A8F39923C1F3C6
S1130DB0AEF3DF93CF931F930F93FF92C92FDD27D9
S1130DC088232AF02197660F771F881FDAF720E01F
S1130DD030E040E85FEB9FE3883920F0803E38F054
S1130DE021968F770E945F05E8E6F0E004C00E9438
S1130DF05F05E5E9F0E00E9420088B01BE01EC01EB
S1130E00FB2E6F5771097595771F880B990B0E94FC
S1130E103F0628E132E741E35FE30E942E07AF2D4E
S1130E209801AE01FF900F911F91CF91DF910E9425
S1130E3076050C9491060E942E070C9491060E944C
S1130E40830638F00E948A0620F0952311F00C9452
S1130E507A060C94800611240C94C5060E94A206FE
S1130E6070F3959FC1F3950F50E0551F629FF001F9
S1130E70729FBB27F00DB11D639FAA27F00DB11D12
S1130E80AA1F649F6627B00DA11D661F829F22279B
S1130E90B00DA11D621F739FB00DA11D621F839F22
S1130EA0A00D611D221F749F3327A00D611D231FF8
S1130EB0849F600D211D822F762F6A2F11249F5746
S1130EC050409AF0F1F088234AF0EE0FFF1FBB1F49
S1130ED0661F771F881F91505040A9F79E3F510508
S1130EE080F00C947A060C94C5065F3FE4F3983EB8
S1130EF0D4F3869577956795B795F795E7959F5FB2
S1130F00C1F7FE2B880F911D9695879597F9089543
S1130F10FA01EE0FFF1F309621053105A1F161158D
S1130F20710561F48038BFE39B0749F168949038F8
S1130F30810561F08038BFEF9B0741F099234AF5A2
S1130F40FF3FE1053105210519F1E8940894E7957F
S1130F50D901AA2329F4AB2FBE2FF85FD0F310C018
S1130F60FF5F70F4A695E0F7F73950F019F0FF3AF7
S1130F7038F49F779F930DD00F9007FC90580895F5
S1130F8046F00C94800660E070E080E89FE30895EA
S1130F904FE79F775F934F933F932F930E94D3061E
S1130FA02F913F914F915F910E941B070C94E00792
S1130FB029F416F00C947A060C94C4060C9480065A
S1130FC00E94AA06A8F39638A0F707F80F92E894AF
S1130FD02BE33AEA48EB5FE70E9431070F920F9246
S1130FE00F924DB75EB70F920E948908E2ECF0E0D1
S1130FF00E9420084F915F91EF91FF91E595EE1FBC
S1131000FF1F49F0FE57E0684427EE0F441FFA958E
S1131010E1F74195550B0E9453080F9007FE0C947D
S1131020470808959F3F31F0915020F487957795B4
S11310306795B795880F911D9695879597F90895AB
S1131040DF93CF931F930F93FF92EF92DF927B0175
S11310508C01689406C0DA2EEF010E942E07FE016F
S1131060E894A5912591359145915591A6F3EF0109
S11310700E947605FE019701A801DA9469F7DF90D2
S1131080EF90FF900F911F91CF91DF9108959B01F5
S1131090AC0160E070E080E89FE30C94CB050C9415
S11310A07A060C9412080E94AA06D8F39923C9F36D
S11310B0940F511DA3F39150504094F059F088239C
S11310C032F0660F771F881F91505040C1F79E3F42
S11310D051052CF7880F911D9695879597F90895DA
S11310E05F3FACF0983E9CF0BB278695779567955B
S11310F0B79508F4B1609395C1F7BB0F58F711F495
S113110060FFE8CF6F5F7F4F8F4F9F4FE3CF0C940B
S1131110C506FA01DC01AA0FBB1F9B01AC01BF5736
S113112028F4222733274427507820C0B75190F45D
S1131130AB2F0024469537952795011CA395D2F330
S1131140002071F0220F331F441FB395DAF30ED041
S11311500C945E0561307105A0E88A07B94630F445
S11311609B01AC016627772788279078309621F079
S113117020833183428353830895EF920F931F9307
S1131180CF93DF93E80147FD02C034E001C034E1AE
S1131190042E000C550B57FF03C05195419551097E
S11311A0E32E022F242FAE010E94DD08CE01DF9131
S11311B0CF911F910F91EF900895A9E0B0E0E3EE75
S11311C0F8E00C94150B6A01122FB02E2BE32017B4
S11311D020F0FF24F394F00E02C02CE3F22E0F2D26
S11311E027E0AE014F5F5F4F0E94370ABC0149817F
S11311F0842F8970813031F0E1FC06C0E0FE06C026
S113120090E205C09DE203C09BE201C090E05E2D28
S1131210507143FF3CC0911102C083E001C084E0DF
S1131220811718F4212F281B01C020E051110BC095
S1131230F601822F30E2882319F031938150FBCFDD
S1131240C20ED11C20E0992329F0D6019C93F6010B
S113125031966F01C6010396E2FE0AC03EE4D60150
S11312603C9341E411964C93119712963C9306C01B
S11312703EE6F601308341E641833283FC01322F9E
S113128040E2332309F442C041933150FACF42FF84
S113129044C0911102C083E001C084E0811718F4B6
S11312A0212F281B01C020E051110BC0F601822F11
S11312B030E2882319F031938150FBCFC20ED11C48
S11312C020E0992329F0D6019C93F60131966F0111
S11312D0C6010396E2FE0BC039E4D6013C933EE41A
S11312E011963C93119736E412963C9307C039E665
S11312F0F60130833EE6318336E63283FC01322F39
S113130040E2332319F041933150FBCFFC01E20F4B
S1131310F11D10828EEF9FEFA6C021E030E0911105
S113132002C020E030E0161617061CF4FB013196CB
S113133002C0E1E0F0E02E0F3F1FBB2021F0EB2DB7
S1131340F0E0319602C0E0E0F0E02E0F3F1FE12F05
S1131350F0E02E173F071CF4121B212F01C020E0E0
S11313608E2D887159F4F601822F30E2882319F00A
S113137031938150FBCFC20ED11C20E0992329F078
S1131380D6019C93F60131966F0151110BC0F60101
S1131390822F90E3882319F091938150FBCFC20EE2
S11313A0D11C20E00F2D060F9A81342F307144FF99
S11313B003C0913309F40150101624F4093018F0D5
S11313C008E001C001E0AB0177FF02C040E050E05B
S11313D0FB01E41BF50BA1E0B0E0AC0FBD1FEA0F6D
S11313E0FB1F8EE2A82E4B01801A91080B2D10E0F2
S11313F01195019511094F3FBFEF5B0721F4D60109
S1131400AC9211966D01641775072CF0841695063D
S113141014F4818101C080E3415051093196D60111
S113142011967D014017510724F0D6018C93670172
S1131430E2CF6417750739F4963320F4953319F421
S1131440311101C081E3F6018083F701822F90E21C
S1131450882319F091938150FBCFF701E20FF11D1E
S1131460108280E090E02996ECE00C94310B283057
S113147008F027E03327DA01990F311D87FD9160C9
S113148000966105710539F432602E5F3D9330E3B7
S11314902A95E1F708959F3F30F080387105610582
S11314A009F03C5F3C5F3D93913008F08068911DEA
S11314B0DF93CF931F930F93FF92EF92192F987F8F
S11314C09695E92F96959695E90FFF27EC5BFE4FCD
S11314D099273327EE24FF24A701E70105900894F8
S11314E0079428F4360FE71EF81E491F511D660F96
S11314F0771F881F991F0694A1F70590079428F475
S1131500E70EF81E491F561FC11D770F881F991F2C
S1131510661F0694A1F70590079428F4F80E491F56
S1131520561FC71FD11D880F991F661F771F06946A
S1131530A1F70590079420F4490F561FC71FD81F21
S1131540990F661F771F881F0694A9F78491109539
S1131550177041F0D695C79557954795F794E7943A
S11315601A95C1F7EAEEF0E068941590159135915B
S11315706591959105907FE27395E118F10A430B0B
S1131580560BC90BD009C0F7E10CF11E431F561FBF
S1131590C91FD01D7EF4703311F48A95E6CFE89408
S11315A0015030F0080F0AF40027021708F4202F26
S11315B02395022F7A3328F079E37D932A95E9F76E
S11315C010C07D932A9589F606949795679537956B
S11315D017951794E118F10A430B560BC90BD00960
S11315E098F023957E9173957A3308F070E37C9399
S11315F02013B8F77E9170617D9330F0839571E389
S11316007D9370E32A95E1F71124EF90FF900F91F9
S11316101F91CF91DF91992787FD909508952F927F
S11316203F924F925F926F927F928F929F92AF926E
S1131630BF92CF92DF92EF92FF920F931F93CF93BB
S1131640DF93CDB7DEB7CA1BDB0B0FB6F894DEBF52
S11316500FBECDBF09942A88398848885F846E8478
S11316607D848C849B84AA84B984C884DF80EE80C2
S1131670FD800C811B81AA81B981CE0FD11D0FB6CB
S1131680F894DEBF0FBECDBFED010895F894FFCFEF
S1131690000040C1030A3063616C696272616E6468
S11316A06F2E2E2E006D696469656E646F2E2E2E6A
S11316B0006572726F7220736F6E646100B04300D4
S11316C05000463A54656D702C322E3000494E4914
S11316D04349414E444F4F0076616C6F72206F66F0
S10916E06673657400004E
S9030000FC
