:100000000C94B1000C94CE000C94CE000C94CE0055
:100010000C94CE000C94CE000C94CE000C94BF0433
:100020000C94CE000C94CE000C94CE000C94CE0018
:100030000C94CE000C94CE000C94CE000C94CE0008
:100040000C94CE000C94CE000C94C6020C94CE00FE
:100050000C94CE000C94CE000C94CE000C94CE00E8
:100060000C94CE000C94CE0000407A10F35A00A0FD
:10007000724E18090010A5D4E80000E87648170071
:1000800000E40B54020000CA9A3B000000E1F505B1
:10009000000080969800000040420F000000A086FB
:1000A00001000000102700000000E803000000002D
:1000B0006400000000000A000000000001000000D1
:1000C00000002C76D888DC674F0823DFC1DFAE59EB
:1000D000E1B1B796E5E3E453C63AE651997696E87E
:1000E000E6C28426EB898C9B62ED407C6FFCEFBC02
:1000F0009C9F40F2BAA56FA5F490055A2AF75C932D
:100100006B6CF9676DC11BFCE0E40D47FEF520E662
:10011000B500D0ED902E0300943577050080841E45
:10012000080000204E0A000000C80C333333330FA0
:10013000986E12831141EF8D2114893BE65516CF3D
:10014000FEE6DB18D1844B381BF77C1D901DA4BB49
:10015000E424203284725E228100C9F124ECA1E5FE
:100160003D2711241FBECFEFD8E0DEBFCDBF11E089
:10017000A0E0B1E0E8E0F5E202C005900D92AE3EED
:10018000B107D9F725E0AEEEB1E001C01D92A5366A
:10019000B207E1F70E94B2050C9482120C940000A1
:1001A00088E18093C10086E08093C20087E090E000
:1001B0009093C5008093C40008959091C00095FF6E
:1001C000FCCF8093C6000895CF93DF93EC01888124
:1001D000882321F00E94DD002196F9CFDF91CF9195
:1001E000089587B18F7E87B988B1806188B987B15A
:1001F0008F7D87B988B1806288B982E08A95F1F7EE
:1002000000C087B1806187B988B18F7E88B981E0ED
:10021000089587B1806187B988B18F7E88B987B129
:100220008F7D87B988B1806288B982E08A95F1F7BD
:1002300000C087B18F7E87B988B1806188B9089581
:100240001092640510926305209163053091640556
:10025000283031053CF597B1906297B998B19F7DF0
:1002600098B988233CF497B19F7E97B998B1906173
:1002700098B906C097B1906197B998B19F7E98B927
:1002800097B19F7D97B998B1906298B9880F2091E6
:100290006305309164052F5F3F4F309364052093D1
:1002A0006305D2CF87B1806287B988B18F7D88B965
:1002B00087B18F7E87B988B1806188B987B18F7D1A
:1002C00087B988B1806288B987B18F7E87B9499B29
:1002D00002C080E001C081E000C097B1906297B990
:1002E00098B19F7D98B908951092600510925F05AE
:1002F000109262051092610587B18F7E87B91092C6
:1003000064051092630580916305909164050897D8
:10031000E4F587B1806287B988B18F7D88B987B1EC
:100320008F7D87B988B1806288B986B190E080718D
:1003300099279093600580935F05409749F48091D9
:100340006105909162050196909362058093610525
:1003500087B1806287B988B18F7D88B98091630544
:10036000909164058730910554F420916105309196
:100370006205220F331F30936205209361050196B9
:100380009093640580936305BECF87B1806187B980
:1003900088B18F7E88B987B1806287B988B18F7D37
:1003A00088B900C087B18F7D87B988B1806288B96C
:1003B00000C087B1806287B988B18F7D88B980918C
:1003C000610508951092600510925F051092620514
:1003D0001092610587B18F7E87B9109264051092E3
:1003E000630580916305909164050897E4F587B1F2
:1003F000806287B988B18F7D88B987B18F7D87B9D1
:1004000088B1806288B986B190E080719927909315
:10041000600580935F05409749F480916105909154
:1004200062050196909362058093610587B18062B1
:1004300087B988B18F7D88B98091630590916405F3
:100440008730910554F42091610530916205220FA7
:10045000331F3093620520936105019690936405E4
:1004600080936305BECF87B18F7E87B988B18061E5
:1004700088B987B1806287B988B18F7D88B900C09B
:1004800087B18F7D87B988B1806288B900C087B194
:10049000806287B988B18F7D88B9809161050895A0
:1004A000CF93C82F0E94F1008C2F0E9420010E9440
:1004B000740190E090935E0580935D050E94E201D7
:1004C00090E090935C0580935B050E940901CF91B9
:1004D0000895BF92CF92DF92EF92FF920F931F93F6
:1004E000CF93DF93B82EC12CD12C760101E010E020
:1004F00005301105ECF40E94F1008B2D0E942001C3
:1005000090E090935A05809359050E947401C82F7A
:10051000D0E0DC2FCC270E94E201C82B0E94090109
:10052000DF73CC0EDD1EE11CF11C0F5F1F4FE0CF0F
:10053000C701B601969587957795679596958795A6
:10054000779567950E94D50E20E030E040E056E4B4
:100550000E94BB0D2DE33AE047E55DE30E948C0F5E
:1005600023E333E343E35FE30E94BC0D29EA3DE468
:100570004CE35FE30E948C0FDF91CF911F910F91AD
:10058000FF90EF90DF90CF90BF9008951F920F9251
:100590000FB60F9211242F933F934F935F936F9356
:1005A0007F938F939F93AF93BF93EF93FF9380912C
:1005B000C60080937C018D3401F581E08093A00317
:1005C00010929A0310929F0381E090E090937F0332
:1005D00080937E0310928303109282038DE40E9425
:1005E000DD008AE00E94DD002FEF8FE796E12150C9
:1005F00080409040E1F700C0000080917C0184348D
:1006000071F41092A00310929F0382E791E00E9480
:10061000E4008AE00E94DD0081E0809399038091EC
:100620007C01863561F485B1817085B986E50E94CB
:10063000DD008AE00E94DD0081E080939A038091D2
:100640007C01813409F062C081E090E090937F03E7
:1006500080937E0380EF90E09093230180932201AA
:1006600088E790E0909321018093200181E40E942B
:10067000DD008AE00E94DD0010929D0380E48093FB
:100680009C038CE291E0A0E0B0E080931201909393
:100690001301A0931401B09315018AE090E0A0E04B
:1006A000B0E080930E0190930F01A0931001B093DE
:1006B00011018EE190E0A0E0B0E080930A019093F8
:1006C0000B01A0930C01B0930D018DE290E0A0E02E
:1006D000B0E08093060190930701A0930801B093C6
:1006E000090186E490E0A0E0B0E0809302019093DD
:1006F0000301A0930401B09305012FEF8FE796E16A
:10070000215080409040E1F700C0000080917C01C2
:100710008E3409F062C081E090E090937F03809373
:100720007E0380EA90E0909323018093220180E58C
:1007300090E090932101809320018EE40E94DD00DF
:100740008AE00E94DD0010929D0380E180939C036B
:100750008CE291E0A0E0B0E080931201909313014D
:10076000A0931401B09315018AE090E0A0E0B0E0FE
:1007700080930E0190930F01A0931001B09311018B
:100780008EE190E0A0E0B0E080930A0190930B012D
:10079000A0930C01B0930D018DE290E0A0E0B0E0D9
:1007A0008093060190930701A0930801B09309017B
:1007B00086E490E0A0E0B0E0809302019093030112
:1007C000A0930401B09305012FEF8FE796E121502C
:1007D00080409040E1F700C0000080917C018234AD
:1007E00009F063C081E090E090937F0380937E03E3
:1007F00088E790E090932301809322018CE390E0BE
:10080000909321018093200181E080939D0388E0F3
:1008100080939C0382E40E94DD008AE00E94DD0058
:1008200084E690E0A0E0B0E0809312019093130181
:10083000A0931401B093150185E090E0A0E0B0E032
:1008400080930E0190930F01A0931001B0931101BA
:100850008AE090E0A0E0B0E080930A0190930B0161
:10086000A0930C01B0930D0184E190E0A0E0B0E012
:100870008093060190930701A0930801B0930901AA
:100880008EE190E0A0E0B0E080930201909303013C
:10089000A0930401B09305012FEF8FE796E121505B
:1008A00080409040E1F700C0000080917C018934D5
:1008B00059F487E891E00E94E4008DE791E00E94FE
:1008C000E4008AE00E94DD0080917C01803529F4FB
:1008D0000E94DD008AE00E94DD0080917C01873467
:1008E00041F40E94DD008AE00E94DD0085E08093F3
:1008F000A00380917C018835A9F40E94DD008AE084
:100900000E94DD0086E08093A00383E085B9109209
:1009100016011092170110921801109219018FEF11
:100920008093980380917C018B3251F40E94DD000A
:100930008AE00E94DD00809198038F5F8093980386
:1009400080917C018D3251F40E94DD008AE00E948A
:10095000DD0080919803815080939803FF91EF917F
:10096000BF91AF919F918F917F916F915F914F91C7
:100970003F912F910F900FBE0F901F9018951F92CF
:100980000F920FB60F9211242F938F939F93AF93D3
:10099000BF938091960390919703892B89F181E011
:1009A00090E09093950380939403809188039091B5
:1009B0008903A0918A03B0918B03893E9340A105DE
:1009C000B10558F0109288031092890310928A039F
:1009D00010928B0381E0809399038091880390911A
:1009E0008903A0918A03B0918B030196A11DB11DCB
:1009F0008093880390938903A0938A03B0938B0319
:100A00008091A003811109C010929003109291036C
:100A1000109292031092930313C0809190039091CF
:100A20009103A0919203B09193030196A11DB11D72
:100A30008093900390939103A0939203B0939303B8
:100A400080918C0390918D03A0918E03B0918F03C0
:100A5000803D27E09207A105B10558F40196A11D3C
:100A6000B11D80938C0390938D03A0938E03B0935C
:100A70008F03BF91AF919F918F912F910F900FBED8
:100A80000F901F9018958F929F92AF92BF92CF9226
:100A9000DF92EF92FF92CF93DF936B017C019B017A
:100AA000AC010E94BC0DCEEED1E0209176033091D6
:100AB000770340917803509179030E94BC0D2C81FB
:100AC0003D814E815F810E94BB0D4B015C016881BD
:100AD00079818A819B819B01AC010E94BC0D9B01A5
:100AE000AC01C501B4010E94BB0D20E030E040E044
:100AF0005EE30E948C0F4B015C0180E090E0833646
:100B00009105DCF49C012F5F3F4FF901EE0FFF1FB1
:100B1000EE0FFF1FE251FE4F4081518162817381D0
:100B2000880F991F880F991FFC01E251FE4F4083E7
:100B3000518362837383C901E2CFC0927A03D0925A
:100B40007B03E0927C03F0927D03C501B401DF9149
:100B5000CF91FF90EF90DF90CF90BF90AF909F909C
:100B60008F900895CF93DF93CDB7DEB76B970FB615
:100B7000F894DEBF0FBECDBF109288031092890398
:100B800010928A0310928B031092990310929E0385
:100B900010929D0310929C0325E020939B0387E015
:100BA00084B980E28AB91BB883E284BD81E085BD47
:100BB00092E09093B00036EE3093B3002093B100F2
:100BC0009093700088BD83E085B9F8940E94D000AE
:100BD00088E98093C100789481E50E9450022FEF4C
:100BE0003FE744E0215030404040E1F700C00000C2
:100BF00087E891E00E94E4008DE791E00E94E40024
:100C00008AE00E94DD008EEB90E0909323018093B8
:100C10002201212C312C188A198A1A8A1B8A1C8AD3
:100C20001D82812C912C1B861A86A12CB12C1F862B
:100C30001E86412C512C612C712C19821A821B8228
:100C40001C820AC0188A198A1A8A1B8A1B861A866D
:100C5000A12CB12C1F861E8681E50E9469026B01C2
:100C60007C016093A9037093AA038093AB039093D4
:100C7000AC0320E030E84DE953E40E94870F1816DA
:100C800094F06091220170912301072E000C880BD3
:100C9000990B0E94D70E9B01AC01C701B6010E94BF
:100CA000870F1816DCF41092A0038FEF9FEF90933C
:100CB00001018093000185B190E08A7F992790938C
:100CC00081038093800385B986E391E00E94E4006C
:100CD0008AE00E94DD008DE00E94DD0089B18C7DFC
:100CE00080939B0320917E0330917F032130310557
:100CF000A9F410927F0310927E0390919C038917B0
:100D000069F080E880939B0386E391E00E94E40011
:100D10008AE00E94DD0084E08093A0038091A0031C
:100D2000882309F451C085300CF04EC05FEF651A7E
:100D3000750A85E6681671044CF181E991E00E941C
:100D4000E40005E415E020E043E0C701B6010E949D
:100D5000F90FC8010E94E40085E991E00E94E400D7
:100D60006091980370E080E090E00E94D50E20E052
:100D700043E00E94F90FC8010E94E4008AE00E944B
:100D8000DD008DE00E94DD00612C712C409190030C
:100D90005091910360919203709193038091160199
:100DA00090911701A0911801B0911901841795072E
:100DB000A607B70748F48CE291E00E94E4008AE0BD
:100DC0000E94DD001092A0038091A003811111C048
:100DD000809122019091230199230CF4019695951D
:100DE0008795909321018093200115B881E088BDFB
:100DF00033CF813009F0E5C080919D038130D9F473
:100E000086E085B988EC9FEAA0E0B0E08093160107
:100E100090931701A0931801B093190181EE9AE7FE
:100E2000A4E1BEE380931C0190931D01A0931E01D9
:100E3000B0931F011AC083E085B980E99FE5A1E066
:100E4000B0E08093160190931701A0931801B0931E
:100E500019018AE999E9A9E9BEE380931C019093FD
:100E60001D01A0931E01B0931F018FEF88BD10924A
:100E70008C0310928D0310928E0310928F03C090FA
:100E8000A903D090AA03E090AB03F090AC0320E05C
:100E900030E040E450E4C701B6010E94870F181605
:100EA00064F48091820390918303892B31F481E073
:100EB00090E0909383038093820320E030E040EA47
:100EC00050E4C701B6010E94870F181634F482E07F
:100ED00090E090938303809382038091900390919C
:100EE0009103A0919203B0919303853F9140A10596
:100EF000B105C8F12AE939E949E95EE3C701B6015C
:100F00000E94280E88237CF58091820390918303B0
:100F1000009751F48AE491E00E94E4008AE00E9484
:100F2000DD001092A0031FC08130910551F48EE5C1
:100F300091E00E94E4008AE00E94DD001092A0038C
:100F400012C0029781F484E591E00E94E4008AE0F7
:100F50000E94DD0088E691E00E94E4008AE00E94A1
:100F6000DD001092A0036091200170912101072EF5
:100F7000000C880B990B0E94D70E2091A903309189
:100F8000AA034091AB035091AC030E94280E882322
:100F90000CF058CE85B190E08A7F99279093810319
:100FA0008093800385B982E08093A003188A198A10
:100FB0001A8A1B8A1B861A86A12CB12C1F861E86B4
:100FC0004BCE823009F074C0C701B6010E944305C0
:100FD0006093A5037093A6038093A7039093A8033F
:100FE000C0908C03D0908D03E0908E03F0908F031F
:100FF000FFEECF16F2E0DF06E104F10448F12091A4
:101000001C0130911D0140911E0150911F010E9451
:10101000870F1816ECF480919D03813069F480915C
:101020002001909121010A96909321018093200143
:1010300081E08093A0030CC0809120019091210158
:101040004496909321018093200181E08093A00336
:1010500020EDC21627E0D206E104F10409F0FCCD30
:1010600083E08093A00310928C0310928D03109262
:101070008E0310928F03109299038091A90390918F
:10108000AA03A091AB03B091AC038093A10390930A
:10109000A203A093A303B093A403212C312C188A9C
:1010A000198A1A8A1B8A1C8A1D82812C912CD4CD04
:1010B000833009F04EC3C701B6010E944305609317
:1010C000A5037093A6038093A7039093A803609150
:1010D000A9037091AA038091AB039091AC0320E027
:1010E00030E04CE052E40E94280E8823C4F484E0EF
:1010F0008093A0038FEF9FEF9093010180930001F5
:1011000085B190E08A7F9927909381038093800333
:1011100085B92A853B8505C020E030E002C02A85DC
:101120003B858091990381115AC0F101EE0FFF1F99
:10113000E358FB4F11821082F101EE0FFF1FEE0FFB
:10114000FF1FEB54FC4F1082118212821382109207
:1011500084031092850310928603109287031092E5
:101160008C0310928D0310928E0310928F0381E5F1
:101170000E9469026B017C016093A9037093AA032A
:101180008093AB039093AC032091A1033091A20311
:101190004091A3035091A4030E94280E88231CF4BD
:1011A00081E08093990388B5809398038B30A0F0F9
:1011B0008B3F28F080911B018093980388BD80911C
:1011C000980390911A01981718F48150809398030E
:1011D0008091980388BDA0CF85E088BD9DCF3B87D7
:1011E0002A8780919903813009F041C0F101EE0F07
:1011F000FF1FE358FB4F11821082F101EE0FFF1F1A
:10120000EE0FFF1FEB54FC4F1082118212821382EB
:101210001092840310928503109286031092870324
:1012200010928C0310928D0310928E0310928F03F4
:1012300081E50E9469026B017C016093A9037093B0
:10124000AA038093AB039093AC0388B58093980373
:101250008E3F28F48F5F8093980388BDC2CF8FEFB5
:1012600088BD82E08093990310929E03BACF80914B
:101270008C0390918D03A0918E03B0918F038E8388
:101280009F83A887B987855B9109A109B10909974F
:10129000A105B105C0F48091A9039091AA03A09182
:1012A000AB03B091AC038093AD039093AE03A093D6
:1012B000AF03B093B0038093B1039093B203A093B4
:1012C000B303B093B4036091A5037091A60380911A
:1012D000A7039091A80320911C0130911D0140911A
:1012E0001E0150911F010E94870F18160CF036C185
:1012F0002E813F8148855985293C3105410551059D
:1013000008F42CC180919E03811104C081E0809378
:101310009E0324C1823009F021C1B101032C000CCD
:10132000880B990B0E94D70E6E877E838D8B998FC9
:1013300020E030E040E050E4688979898A899B891F
:101340000E94BC0D9B01AC016E857E818D89998DBB
:101350000E94870F18160CF04AC034E0231631049F
:101360000CF445C0F101EE0FFF1FEE0FFF1FEB5411
:10137000FC4F80819181A281B3818A879B87AC8752
:10138000BD872AE939E949E15FE36C897D81882DD0
:10139000992D0E948C0F9B01AC016A857B858C8501
:1013A0009D850E94280E882364F02DEC3CEC4CECCB
:1013B0005DE36A857B858C859D850E94280E882348
:1013C000B4F495E02916310494F084E08093A003EE
:1013D0008FEF9FEF909301018093000185B190E022
:1013E0008A7F9927909381038093800385B9F101C7
:1013F000EE0FFF1FEE0FFF1FEB54FC4F008111811A
:10140000A281AA8FB381BA87202F312F4A2F5B2F59
:101410006C897D81882D992D0E94280E882364F483
:10142000EE85E88BFE81F98B2D892A8B398D3B8BDC
:101430000C8B1D838A8C9A842114310461F5A101DF
:10144000440F551F43585B4F5F834E83C701B6015E
:101450000E949F0EAE81BF816D937C932091AD035E
:101460003091AE034091AF035091B0036091B1034E
:101470007091B2038091B3039091B4030E94BB0DAD
:10148000F101EE0FFF1FEE0FFF1FEB54FC4F6083C7
:1014900071838283938380ED97E0A0E0B0E0809336
:1014A0008C0390938D03A0938E03B0938F0383E0FE
:1014B00080939E03BFEF2B1A3B0A2091A903309122
:1014C000AA034091AB035091AC032A873B874C871A
:1014D0005D8720E030E048EC52E46A857B858C85AE
:1014E0009D850E94870F1816ECF4209128013091F9
:1014F000290140912A0150912B016A857B858C85B9
:101500009D850E94BB0D6093A1037093A2038093FD
:10151000A3039093A40341E050E05B874A871F86B2
:101520001E861CC020912401309125014091260186
:10153000509127016A857B858C859D850E94BB0D16
:101540006093A1037093A2038093A3039093A403D9
:1015500081E090E09B878A871F861E8680919E038C
:10156000813009F07DC08091840390918503A09122
:101570008603B09187039C01AD012F5F3F4F4F4F12
:101580005F4F2E833F83488759872093840330938E
:10159000850340938603509387038091A90390911C
:1015A000AA03A091AB03B091AC038D8B9E8BAF8B44
:1015B000B88F2091B1033091B2034091B3035091A1
:1015C000B403BC01CD010E94870F1816ACF52D891C
:1015D0003E894F89588D2093B1033093B2034093D5
:1015E000B3035093B403C101880F991FAC01435852
:1015F0005B4F5B8F4A8FC701B6010E949F0EAA8D79
:10160000BB8D6D937C932091AD033091AE034091DF
:10161000AF035091B0036D897E898F89988D0E94A8
:10162000BB0DF101EE0FFF1FEE0FFF1FEB54FC4F40
:1016300060837183828393832E813F81488559859E
:10164000213931404105510558F010928403109220
:101650008503109286031092870382E080939E0395
:1016600080918C0390918D03A0918E03B0918F0394
:101670008D3D9540A105B10508F4EECA109299037D
:1016800010928C0310928D0310928E0310928F0390
:101690002A853B85232B99F5C090A903D090AA03F6
:1016A000E090AB03F090AC0320E030E048EC52E473
:1016B000C701B6010E94870F18168CF420E030E0B5
:1016C00040E251E4C701B6010E94BB0D6093A10343
:1016D0007093A2038093A3039093A40310C020E00F
:1016E00030E040E251E4C701B6010E94BB0D6093B7
:1016F000A1037093A2038093A3039093A403109279
:10170000B1031092B2031092B3031092B4034E854A
:101710005F854F5F5F4F5F874E87443051050CF404
:101720009BCA56E0251631040CF496CA84E08093D7
:10173000A0038FEF9FEF909301018093000185B18B
:1017400090E08A7F9927909381038093800385B9E5
:1017500083CA843009F048C188E991E00E94E4001E
:101760008AE00E94DD008DEA91E00E94E40005E439
:1017700015E023E042E06C897D81882D992D0E943F
:10178000F90FC8010E94E4008AE00E94DD0085E0B4
:10179000281631043CF480E491E00E94E4008AE0E1
:1017A0000E94DD001E8A1D8A7F826E827C88ED8900
:1017B000FE89E215F3050CF0BEC089EB91E00E94B2
:1017C000E4002D893E89B901330F880B990B0E94E3
:1017D000D70E6B017C0105E415E020E042E00E9499
:1017E000F90FC8010E94E40088EC91E00E94E40037
:1017F00080ED91E00E94E400ED89FE89EE0FFF1F6D
:10180000E358FB4F60817181072E000C880B990B08
:101810000E94D70E20E043E00E94F90FC8010E9409
:10182000E40080ED91E00E94E400ED89FE89EE0F76
:10183000FF1FEE0FFF1FEB54FC4F6081718182810F
:10184000938125E040E00E94F90FC8010E94E40066
:1018500080ED91E00E94E40020E042E0C701B60183
:101860000E94F90FC8010E94E4008AE00E94DD0096
:101870008DE00E94DD0080919D038130B9F460917C
:101880007D0470917E04072E000C880B990B0E943A
:10189000D70E69837A838B839C83F1013197EE0F96
:1018A000FF1FE358FB4F408051803EC0A114B1049C
:1018B00099F5ED89FE89EE0FFF1FEE0FFF1FEB5428
:1018C000FC4FC080D180E280F38023E333E343E325
:1018D0005FE3672D7D81882D992D0E948C0F9B01E0
:1018E000AC01C701B6010E94870F1816ACF4ED8950
:1018F000FE89EE0FFF1FE358FB4F60817181072EB9
:10190000000C880B990B0E94D70E69837A838B8316
:101910009C83AA24A394B12CF1013297EE0FFF1FF0
:10192000E358FB4F408051804D895E894F5F5F4F88
:101930005E8B4D8B3CCF6E807F801092A003B201F6
:10194000052C000C880B990B0E94D70E6B017C01B3
:101950009B01AC0169817A818B819C810E94BB0DC6
:1019600020E030E040E450E40E942D0E9B01AC01E9
:10197000C701B6010E94BC0D6E837F83888799875B
:1019800082ED91E00E94E4000FE415E020E042E0E7
:1019900069817A818B819C810E94F90FC8010E9424
:1019A000E4008CE20E94DD0005E415E020E042E066
:1019B000C701B6010E94F90FC8010E94E4008CE241
:1019C0000E94DD0020E042E06E817F81888599855C
:1019D0000E94F90FC8010E94E4008AE00E94DD0025
:1019E0008DE00E94DD0038C9853009F080C083E0B9
:1019F00085B91092160110921701109218011092D9
:101A000019018FEF88BD20E030E040EF52E4C701BC
:101A1000B6010E94280E8823DCF481E50E94690249
:101A20006B017C0185ED91E00E94E40005E415E086
:101A300020E043E0C701B6010E94F90FC8010E94EF
:101A4000E4008AE00E94DD008DE00E94DD00DBCF33
:101A500082E085B98091160190911701A09118013B
:101A6000B0911901803157E29507A105B105D8F56C
:101A70000196A11DB11D8093160190931701A093AB
:101A80001801B093190181E50E9469026B017C0184
:101A900089ED91E00E94E40005E415E020E043E0D8
:101AA000C701B6010E94F90FC8010E94E4008DED44
:101AB00091E00E94E40060911601709117018091FD
:101AC0001801909119010E94D50E20E043E00E9478
:101AD000F90FC8010E94E4008AE00E94DD008DE059
:101AE0000E94DD00B7CF84E08093A003B5C88630A4
:101AF00009F0B2C88091980388BD81E50E9469020F
:101B00006B017C0183EE91E00E94E40005E415E0A6
:101B100020E043E0C701B6010E94F90FC8010E940E
:101B2000E40087EE91E00E94E4006091980370E089
:101B300080E090E00E94D50E20E043E00E94F90F83
:101B4000C8010E94E4008AE00E94DD008DE00E944E
:101B5000DD0020E030E040EF52E4C701B6010E9412
:101B6000870F18160CF078C887EE91E00E94E40009
:101B700082E085B971C85058BB27AA270E94D30DAF
:101B80000C944D0F0E943F0F38F00E94460F20F03A
:101B900039F49F3F19F426F40C943C0F0EF4E095B1
:101BA000E7FB0C94360FE92F0E945E0F58F3BA172B
:101BB000620773078407950720F079F4A6F50C9463
:101BC000800F0EF4E0950B2EBA2FA02D0B01B9015A
:101BD00090010C01CA01A0011124FF27591B99F0A3
:101BE000593F50F4503E68F11A16F040A22F232FAF
:101BF000342F4427585FF3CF469537952795A795FF
:101C0000F0405395C9F77EF41F16BA0B620B730BA5
:101C1000840BBAF09150A1F0FF0FBB1F661F771F16
:101C2000881FC2F70EC0BA0F621F731F841F48F4CB
:101C3000879577956795B795F7959E3F08F0B0CF54
:101C40009395880F08F09927EE0F9795879508953B
:101C50000E94120F08F481E008950E94410E0C9436
:101C60004D0F0E94460F58F00E943F0F40F029F49C
:101C70005F3F29F00C94360F51110C94810F0C9496
:101C80003C0F0E945E0F68F39923B1F3552391F343
:101C9000951B550BBB27AA2762177307840738F0DB
:101CA0009F5F5F4F220F331F441FAA1FA9F335D038
:101CB0000E2E3AF0E0E832D091505040E695001CEC
:101CC000CAF72BD0FE2F29D0660F771F881FBB1FA6
:101CD000261737074807AB07B0E809F0BB0B802D84
:101CE000BF01FF2793585F4F3AF09E3F510578F0B0
:101CF0000C94360F0C94810F5F3FE4F3983ED4F3BD
:101D0000869577956795B795F7959F5FC9F7880F83
:101D1000911D9695879597F90895E1E0660F771FD5
:101D2000881FBB1F621773078407BA0720F0621B66
:101D3000730B840BBA0BEE1F88F7E09508950E9491
:101D4000A60E6894B1110C94810F08950E94660F3D
:101D500088F09F5798F0B92F9927B751B0F0E1F06C
:101D6000660F771F881F991F1AF0BA95C9F714C01C
:101D7000B13091F00E94800FB1E008950C94800F73
:101D8000672F782F8827B85F39F0B93FCCF3869555
:101D900077956795B395D9F73EF4909580957095B2
:101DA00061957F4F8F4F9F4F0895E89409C097FB2F
:101DB0003EF490958095709561957F4F8F4F9F4F22
:101DC0009923A9F0F92F96E9BB279395F695879566
:101DD00077956795B795F111F8CFFAF4BB0F11F429
:101DE00060FF1BC06F5F7F4F8F4F9F4F16C08823D0
:101DF00011F096E911C0772321F09EE8872F762F06
:101E000005C0662371F096E8862F70E060E02AF046
:101E10009A95660F771F881FDAF7880F9695879532
:101E200097F90895990F0008550FAA0BE0E8FEEF07
:101E300016161706E807F907C0F012161306E4078E
:101E4000F50798F0621B730B840B950B39F40A2687
:101E500061F0232B242B252B21F408950A2609F465
:101E6000A140A6958FEF811D811D089597F99F6769
:101E700080E870E060E008959FEF80EC0895002412
:101E80000A941616170618060906089500240A94DF
:101E900012161306140605060895092E0394000C65
:101EA00011F4882352F0BB0F40F4BF2B11F460FFF4
:101EB00004C06F5F7F4F8F4F9F4F089557FD90581D
:101EC000440F551F59F05F3F71F04795880F97FBFE
:101ED000991F61F09F3F79F08795089512161306B8
:101EE0001406551FF2CF4695F1DF08C016161706E7
:101EF0001806991FF1CF869571056105089408951C
:101F0000E894BB2766277727CB0197F908950E94AD
:101F1000120F08F48FEF08950E949F0F0C944D0F3D
:101F20000E943F0F38F00E94460F20F0952311F0D9
:101F30000C94360F0C943C0F11240C94810F0E94CA
:101F40005E0F70F3959FC1F3950F50E0551F629F90
:101F5000F001729FBB27F00DB11D639FAA27F00D02
:101F6000B11DAA1F649F6627B00DA11D661F829F29
:101F70002227B00DA11D621F739FB00DA11D621F0E
:101F8000839FA00D611D221F749F3327A00D611D2B
:101F9000231F849F600D211D822F762F6A2F11240D
:101FA0009F5750409AF0F1F088234AF0EE0FFF1F40
:101FB000BB1F661F771F881F91505040A9F79E3F97
:101FC000510580F00C94360F0C94810F5F3FE4F3C1
:101FD000983ED4F3869577956795B795F795E795ED
:101FE0009F5FC1F7FE2B880F911D9695879597F9F6
:101FF0000895EF920F931F93CF93DF93E80147FD6E
:1020000002C034E001C034E1042E000C550B57FF30
:1020100003C0519541955109E32E022F242FAE01A3
:102020000E941910CE01DF91CF911F910F91EF9077
:102030000895A9E0B0E0EFE1F0E10C9451126A01DB
:10204000122FB02E2BE3201720F0FF24F394F00E74
:1020500002C02CE3F22E0F2D27E0AE014F5F5F4F41
:102060000E947311BC014981842F8970813031F045
:10207000E1FC06C0E0FE06C090E205C09DE203C0A0
:102080009BE201C090E05E2D507143FF3CC0911176
:1020900002C083E001C084E0811718F4212F281BBF
:1020A00001C020E051110BC0F601822F30E28823DD
:1020B00019F031938150FBCFC20ED11C20E099233F
:1020C00029F0D6019C93F60131966F01C601039663
:1020D000E2FE0AC03EE4D6013C9341E411964C93E3
:1020E000119712963C9306C03EE6F601308341E616
:1020F00041833283FC01322F40E2332309F442C092
:1021000041933150FACF42FF44C0911102C083E0A5
:1021100001C084E0811718F4212F281B01C020E0A2
:1021200051110BC0F601822F30E2882319F0319350
:102130008150FBCFC20ED11C20E0992329F0D6019B
:102140009C93F60131966F01C6010396E2FE0BC027
:1021500039E4D6013C933EE411963C93119736E462
:1021600012963C9307C039E6F60130833EE6318390
:1021700036E63283FC01322F40E2332319F04193DB
:102180003150FBCFFC01E20FF11D10828EEF9FEF6B
:10219000A6C021E030E0911102C020E030E0161628
:1021A00017061CF4FB01319602C0E1E0F0E02E0FAF
:1021B0003F1FBB2021F0EB2DF0E0319602C0E0E0A4
:1021C000F0E02E0F3F1FE12FF0E02E173F071CF429
:1021D000121B212F01C020E08E2D887159F4F601C9
:1021E000822F30E2882319F031938150FBCFC20E49
:1021F000D11C20E0992329F0D6019C93F601319659
:102200006F0151110BC0F601822F90E3882319F062
:1022100091938150FBCFC20ED11C20E00F2D060FF1
:102220009A81342F307144FF03C0913309F4015077
:10223000101624F4093018F008E001C001E0AB01E9
:1022400077FF02C040E050E0FB01E41BF50BA1E08A
:10225000B0E0AC0FBD1FEA0FFB1F8EE2A82E4B01B2
:10226000801A91080B2D10E01195019511094F3F2F
:10227000BFEF5B0721F4D601AC9211966D01641794
:1022800075072CF08416950614F4818101C080E353
:10229000415051093196D60111967D0140175107E1
:1022A00024F0D6018C936701E2CF6417750739F4E7
:1022B000963320F4953319F4311101C081E3F6010E
:1022C0008083F701822F90E2882319F09193815047
:1022D000FBCFF701E20FF11D108280E090E029961C
:1022E000ECE00C946D12283008F027E03327DA0177
:1022F000990F311D87FD916000966105710539F4D4
:1023000032602E5F3D9330E32A95E1F708959F3FB9
:1023100030F080387105610509F03C5F3C5F3D930A
:10232000913008F08068911DDF93CF931F930F9336
:10233000FF92EF92192F987F9695E92F9695969593
:10234000E90FFF27EE53FF4F99273327EE24FF2491
:10235000A701E70105900894079428F4360FE71EBB
:10236000F81E491F511D660F771F881F991F06947D
:10237000A1F70590079428F4E70EF81E491F561F91
:10238000C11D770F881F991F661F0694A1F705903E
:10239000079428F4F80E491F561FC71FD11D880F38
:1023A000991F661F771F0694A1F70590079420F4E4
:1023B000490F561FC71FD81F990F661F771F881F09
:1023C0000694A9F784911095177041F0D695C7959A
:1023D00057954795F794E7941A95C1F7E8E6F0E02A
:1023E00068941590159135916591959105907FE2CE
:1023F0007395E118F10A430B560BC90BD009C0F7CE
:10240000E10CF11E431F561FC91FD01D7EF470330F
:1024100011F48A95E6CFE894015030F0080F0AF4E1
:102420000027021708F4202F2395022F7A3328F073
:1024300079E37D932A95E9F710C07D932A9589F673
:10244000069497956795379517951794E118F10AB3
:10245000430B560BC90BD00998F023957E917395C9
:102460007A3308F070E37C932013B8F77E917061A3
:102470007D9330F0839571E37D9370E32A95E1F7C6
:102480001124EF90FF900F911F91CF91DF91992729
:1024900087FD909508952F923F924F925F926F9291
:1024A0007F928F929F92AF92BF92CF92DF92EF92E4
:1024B000FF920F931F93CF93DF93CDB7DEB7CA1B65
:1024C000DB0B0FB6F894DEBF0FBECDBF09942A8890
:1024D000398848885F846E847D848C849B84AA8438
:1024E000B984C884DF80EE80FD800C811B81AA81C5
:1024F000B981CE0FD11D0FB6F894DEBF0FBECDBF90
:08250000ED010895F894FFCFEE
:10250800FFFF1E000000140000000A000000050084
:10251800000064000000C8AF0000181E9A99993E98
:102528007800BE000000A0400000A0404531320005
:1025380000000000000045313100000000000000EC
:10254800453900000000000000004535000000008B
:102558000000000045330000000000000000453284
:1025680000000000000000004531000000000000ED
:1025780000004530000000000000000030332E321B
:102588002E320000000000493A504E492C0000004D
:1025980000523A20002C2000696E6963696F20643C
:1025A800652063616C63756C6F733A200064656CB9
:1025B8007461206D61783A200070756C736F206EBD
:1025C800756D65726F3A200020507265733A20006D
:1025D8002C006D3A00493A20005A3A20002C20433A
:0E25E8003A2000503A20002C20563A200000E5
:00000001FF
